{
  "contractName": "Bank",
  "abi": [
    {
      "inputs": [
        {
          "name": "amount",
          "type": "uint256"
        }
      ],
      "payable": false,
      "stateMutability": "nonpayable",
      "type": "constructor"
    },
    {
      "constant": false,
      "inputs": [
        {
          "name": "amount",
          "type": "uint256"
        }
      ],
      "name": "deposit",
      "outputs": [],
      "payable": false,
      "stateMutability": "nonpayable",
      "type": "function"
    },
    {
      "constant": false,
      "inputs": [
        {
          "name": "amount",
          "type": "uint256"
        }
      ],
      "name": "withdraw",
      "outputs": [],
      "payable": false,
      "stateMutability": "nonpayable",
      "type": "function"
    },
    {
      "constant": true,
      "inputs": [],
      "name": "balance",
      "outputs": [
        {
          "name": "",
          "type": "uint256"
        }
      ],
      "payable": false,
      "stateMutability": "view",
      "type": "function"
    }
  ],
  "bytecode": "0x60806040526000805534801561001457600080fd5b5060405160208061018883398101806040528101908080519060200190929190505050806000819055505061013a8061004e6000396000f300608060405260043610610057576000357c0100000000000000000000000000000000000000000000000000000000900463ffffffff1680632e1a7d4d1461005c578063b69ef8a814610089578063b6b55f25146100b4575b600080fd5b34801561006857600080fd5b50610087600480360381019080803590602001909291905050506100e1565b005b34801561009557600080fd5b5061009e6100f3565b6040518082815260200191505060405180910390f35b3480156100c057600080fd5b506100df600480360381019080803590602001909291905050506100fc565b005b80600080828254039250508190555050565b60008054905090565b806000808282540192505081905550505600a165627a7a723058205783538d7c2ec90ed8a63ed3129c3928238703e8b0142fc0012b2011ef174b530029",
  "source": "pragma solidity ^0.4.0;\n\ncontract Bank{\n    uint private value = 0;\n    constructor(uint amount) public {\n        value = amount;\n    }\n\n    //external : use this. to call\n    function deposit(uint amount) public{\n        value += amount;\n    }\n    function withdraw(uint amount)public{\n        value -= amount;\n    }\n    function balance() public view returns(uint){\n        return value;\n    }\n}\n\ncontract First is Bank(10){\n    string private name;\n    uint private age;\n\n    function setName(string newName)public{\n        name = newName;\n    }\n\n    function getName() public view returns (string){\n        return name;\n    }\n    function setAge(uint newAge) public {\n        age = newAge;\n    }\n    function getAge() public view returns(uint){\n        return age;\n    }\n}",
  "sourcePath": "/Users/admin/Documents/kenniex/smartcontract/contracts/index.sol",
  "compiler": {
    "name": "solc",
    "version": "0.4.24+commit.e67f0147.Emscripten.clang"
  },
  "schemaVersion": "2.0.0",
  "updatedAt": "2018-06-15T09:35:44.457Z"
}