{
  "contractName": "Greeter",
  "abi": [
    {
      "constant": true,
      "inputs": [],
      "name": "rate",
      "outputs": [
        {
          "name": "",
          "type": "uint256"
        }
      ],
      "payable": false,
      "stateMutability": "view",
      "type": "function"
    },
    {
      "inputs": [
        {
          "name": "_tokenAddress",
          "type": "address"
        }
      ],
      "payable": false,
      "stateMutability": "nonpayable",
      "type": "constructor"
    },
    {
      "constant": false,
      "inputs": [
        {
          "name": "_MyETHWallet",
          "type": "address"
        }
      ],
      "name": "setETHWallet",
      "outputs": [
        {
          "name": "",
          "type": "address"
        }
      ],
      "payable": false,
      "stateMutability": "nonpayable",
      "type": "function"
    },
    {
      "constant": false,
      "inputs": [
        {
          "name": "_rate",
          "type": "uint256"
        }
      ],
      "name": "setRate",
      "outputs": [
        {
          "name": "",
          "type": "uint256"
        }
      ],
      "payable": false,
      "stateMutability": "nonpayable",
      "type": "function"
    },
    {
      "constant": false,
      "inputs": [],
      "name": "buyToken",
      "outputs": [],
      "payable": true,
      "stateMutability": "payable",
      "type": "function"
    }
  ],
  "bytecode": "0x6080604052606460025534801561001557600080fd5b506040516020806105018339810180604052810190808051906020019092919050505080600073ffffffffffffffffffffffffffffffffffffffff168173ffffffffffffffffffffffffffffffffffffffff161415151561007557600080fd5b816000806101000a81548173ffffffffffffffffffffffffffffffffffffffff021916908373ffffffffffffffffffffffffffffffffffffffff160217905550505061043b806100c66000396000f300608060405260043610610062576000357c0100000000000000000000000000000000000000000000000000000000900463ffffffff1680632c4e722e1461006757806334fcf43714610092578063a4821719146100d3578063cc1ec810146100dd575b600080fd5b34801561007357600080fd5b5061007c610160565b6040518082815260200191505060405180910390f35b34801561009e57600080fd5b506100bd60048036038101908080359060200190929190505050610166565b6040518082815260200191505060405180910390f35b6100db6101d5565b005b3480156100e957600080fd5b5061011e600480360381019080803573ffffffffffffffffffffffffffffffffffffffff1690602001909291905050506103a2565b604051808273ffffffffffffffffffffffffffffffffffffffff1673ffffffffffffffffffffffffffffffffffffffff16815260200191505060405180910390f35b60025481565b6000600160009054906101000a900473ffffffffffffffffffffffffffffffffffffffff1673ffffffffffffffffffffffffffffffffffffffff163373ffffffffffffffffffffffffffffffffffffffff161415156101c457600080fd5b816002819055506002549050919050565b600033600073ffffffffffffffffffffffffffffffffffffffff168173ffffffffffffffffffffffffffffffffffffffff161415151561021457600080fd5b670de0b6b3a7640000600254340281151561022b57fe5b0491506000809054906101000a900473ffffffffffffffffffffffffffffffffffffffff1673ffffffffffffffffffffffffffffffffffffffff1663a9059cbb33846040518363ffffffff167c0100000000000000000000000000000000000000000000000000000000028152600401808373ffffffffffffffffffffffffffffffffffffffff1673ffffffffffffffffffffffffffffffffffffffff16815260200182815260200192505050602060405180830381600087803b1580156102f257600080fd5b505af1158015610306573d6000803e3d6000fd5b505050506040513d602081101561031c57600080fd5b8101908080519060200190929190505050151561033557fe5b600160009054906101000a900473ffffffffffffffffffffffffffffffffffffffff1673ffffffffffffffffffffffffffffffffffffffff166108fc349081150290604051600060405180830381858888f1935050505015801561039d573d6000803e3d6000fd5b505050565b600081600160006101000a81548173ffffffffffffffffffffffffffffffffffffffff021916908373ffffffffffffffffffffffffffffffffffffffff160217905550600160009054906101000a900473ffffffffffffffffffffffffffffffffffffffff1690509190505600a165627a7a72305820212e673f0ab1909864cfcdd6338a8d305b57d6365d7b91ecbd22f1be4dd671080029",
  "source": "pragma solidity ^0.4.0;\nimport \"./token02.sol\";\n\ncontract Greeter {\n    \n    TokenInterface Token;\n    \n    address MyETHWallet;// = 0x2e8f9e70f35771ec244810522dce583df4a85a50; \n    uint256 public rate = 100;\n    \n    modifier onlyValidAddress(address _to){\n        require(_to != address(0x00));\n        _;\n    }\n    \n    modifier onlyMyETHWallet(){\n        require(msg.sender == MyETHWallet);\n        _;\n    }\n    //set address reveive eth and send token \n    function setETHWallet(address _MyETHWallet) public returns(address){\n        MyETHWallet = _MyETHWallet;\n        return MyETHWallet;\n    }\n    \n    function setRate(uint256 _rate) onlyMyETHWallet public returns(uint256){\n        rate = _rate;\n        return rate;\n    }\n    \n    constructor(address _tokenAddress) onlyValidAddress(_tokenAddress)  public {\n        Token = TokenInterface(_tokenAddress);\n    }\n    \n    /// @notice Buy tokens from contract by sending ether\n    function buyToken() onlyValidAddress(msg.sender) public payable {\n        uint256 _value = (msg.value*rate)/10**18;\n        assert(Token.transfer(msg.sender, _value));\n        MyETHWallet.transfer(msg.value);\n    }\n    \n    // function withdraw(address token, uint256 amount) returns (bool success) {\n       \n    // }\n}",
  "sourcePath": "/Users/admin/Documents/kenniex/smartcontract/contracts/Greeter.sol",
  "compiler": {
    "name": "solc",
    "version": "0.4.24+commit.e67f0147.Emscripten.clang"
  },
  "schemaVersion": "2.0.0",
  "updatedAt": "2018-06-16T04:30:19.376Z"
}